{
  "_format": "hh-sol-artifact-1",
  "contractName": "WinnerPredictionPool",
  "sourceName": "contracts/WinnerPredictionPool.sol",
  "abi": [
    {
      "anonymous": false,
      "inputs": [
        {
          "indexed": false,
          "internalType": "address",
          "name": "previousAdmin",
          "type": "address"
        },
        {
          "indexed": false,
          "internalType": "address",
          "name": "newAdmin",
          "type": "address"
        }
      ],
      "name": "AdminChanged",
      "type": "event"
    },
    {
      "anonymous": false,
      "inputs": [
        {
          "indexed": true,
          "internalType": "address",
          "name": "beacon",
          "type": "address"
        }
      ],
      "name": "BeaconUpgraded",
      "type": "event"
    },
    {
      "anonymous": false,
      "inputs": [
        {
          "indexed": true,
          "internalType": "address",
          "name": "user",
          "type": "address"
        },
        {
          "indexed": true,
          "internalType": "uint256",
          "name": "pid",
          "type": "uint256"
        },
        {
          "indexed": false,
          "internalType": "uint256",
          "name": "amount",
          "type": "uint256"
        }
      ],
      "name": "Deposit",
      "type": "event"
    },
    {
      "anonymous": false,
      "inputs": [
        {
          "indexed": true,
          "internalType": "address",
          "name": "user",
          "type": "address"
        },
        {
          "indexed": true,
          "internalType": "uint256",
          "name": "pid",
          "type": "uint256"
        },
        {
          "indexed": false,
          "internalType": "uint256",
          "name": "amount",
          "type": "uint256"
        }
      ],
      "name": "EmergencyWithdraw",
      "type": "event"
    },
    {
      "anonymous": false,
      "inputs": [
        {
          "indexed": false,
          "internalType": "address",
          "name": "operator",
          "type": "address"
        }
      ],
      "name": "NewOperatorAddress",
      "type": "event"
    },
    {
      "anonymous": false,
      "inputs": [
        {
          "indexed": true,
          "internalType": "address",
          "name": "previousOwner",
          "type": "address"
        },
        {
          "indexed": true,
          "internalType": "address",
          "name": "newOwner",
          "type": "address"
        }
      ],
      "name": "OwnershipTransferred",
      "type": "event"
    },
    {
      "anonymous": false,
      "inputs": [
        {
          "indexed": false,
          "internalType": "address",
          "name": "account",
          "type": "address"
        }
      ],
      "name": "Paused",
      "type": "event"
    },
    {
      "anonymous": false,
      "inputs": [
        {
          "indexed": false,
          "internalType": "address",
          "name": "account",
          "type": "address"
        }
      ],
      "name": "Unpaused",
      "type": "event"
    },
    {
      "anonymous": false,
      "inputs": [
        {
          "indexed": true,
          "internalType": "address",
          "name": "implementation",
          "type": "address"
        }
      ],
      "name": "Upgraded",
      "type": "event"
    },
    {
      "anonymous": false,
      "inputs": [
        {
          "indexed": true,
          "internalType": "address",
          "name": "user",
          "type": "address"
        },
        {
          "indexed": true,
          "internalType": "uint256",
          "name": "pid",
          "type": "uint256"
        },
        {
          "indexed": false,
          "internalType": "uint256",
          "name": "amount",
          "type": "uint256"
        }
      ],
      "name": "Withdraw",
      "type": "event"
    },
    {
      "inputs": [],
      "name": "BONUS_MULTIPLIER",
      "outputs": [
        {
          "internalType": "uint256",
          "name": "",
          "type": "uint256"
        }
      ],
      "stateMutability": "view",
      "type": "function"
    },
    {
      "inputs": [],
      "name": "CRP",
      "outputs": [
        {
          "internalType": "contract IERC20Upgradeable",
          "name": "",
          "type": "address"
        }
      ],
      "stateMutability": "view",
      "type": "function"
    },
    {
      "inputs": [],
      "name": "CRPPerBlock",
      "outputs": [
        {
          "internalType": "uint256",
          "name": "",
          "type": "uint256"
        }
      ],
      "stateMutability": "view",
      "type": "function"
    },
    {
      "inputs": [
        {
          "internalType": "uint256",
          "name": "_epoch",
          "type": "uint256"
        }
      ],
      "name": "add",
      "outputs": [],
      "stateMutability": "nonpayable",
      "type": "function"
    },
    {
      "inputs": [],
      "name": "allocPoint",
      "outputs": [
        {
          "internalType": "uint256",
          "name": "",
          "type": "uint256"
        }
      ],
      "stateMutability": "view",
      "type": "function"
    },
    {
      "inputs": [
        {
          "internalType": "uint256",
          "name": "_pid",
          "type": "uint256"
        },
        {
          "internalType": "uint256",
          "name": "_amount",
          "type": "uint256"
        }
      ],
      "name": "deposit",
      "outputs": [],
      "stateMutability": "nonpayable",
      "type": "function"
    },
    {
      "inputs": [
        {
          "internalType": "uint256",
          "name": "_pid",
          "type": "uint256"
        }
      ],
      "name": "emergencyWithdraw",
      "outputs": [],
      "stateMutability": "nonpayable",
      "type": "function"
    },
    {
      "inputs": [
        {
          "internalType": "uint256",
          "name": "_from",
          "type": "uint256"
        },
        {
          "internalType": "uint256",
          "name": "_to",
          "type": "uint256"
        }
      ],
      "name": "getMultiplier",
      "outputs": [
        {
          "internalType": "uint256",
          "name": "",
          "type": "uint256"
        }
      ],
      "stateMutability": "view",
      "type": "function"
    },
    {
      "inputs": [],
      "name": "getPoolLength",
      "outputs": [
        {
          "internalType": "uint256",
          "name": "",
          "type": "uint256"
        }
      ],
      "stateMutability": "view",
      "type": "function"
    },
    {
      "inputs": [
        {
          "internalType": "address",
          "name": "_operator",
          "type": "address"
        },
        {
          "internalType": "contract IERC20Upgradeable",
          "name": "_CRP",
          "type": "address"
        },
        {
          "internalType": "uint256",
          "name": "_CRPPerBlock",
          "type": "uint256"
        },
        {
          "internalType": "uint256",
          "name": "_startBlock",
          "type": "uint256"
        },
        {
          "internalType": "uint256",
          "name": "_maxCRPDeposit",
          "type": "uint256"
        },
        {
          "internalType": "contract PredictionWallet",
          "name": "_wallet",
          "type": "address"
        },
        {
          "internalType": "contract Prediction",
          "name": "_prediction",
          "type": "address"
        }
      ],
      "name": "initialize",
      "outputs": [],
      "stateMutability": "nonpayable",
      "type": "function"
    },
    {
      "inputs": [
        {
          "internalType": "address",
          "name": "preder",
          "type": "address"
        },
        {
          "internalType": "uint256",
          "name": "round",
          "type": "uint256"
        }
      ],
      "name": "lostRound",
      "outputs": [
        {
          "internalType": "bool",
          "name": "",
          "type": "bool"
        }
      ],
      "stateMutability": "view",
      "type": "function"
    },
    {
      "inputs": [],
      "name": "maxCRPDeposit",
      "outputs": [
        {
          "internalType": "uint256",
          "name": "",
          "type": "uint256"
        }
      ],
      "stateMutability": "view",
      "type": "function"
    },
    {
      "inputs": [],
      "name": "operatorAddress",
      "outputs": [
        {
          "internalType": "address",
          "name": "",
          "type": "address"
        }
      ],
      "stateMutability": "view",
      "type": "function"
    },
    {
      "inputs": [],
      "name": "owner",
      "outputs": [
        {
          "internalType": "address",
          "name": "",
          "type": "address"
        }
      ],
      "stateMutability": "view",
      "type": "function"
    },
    {
      "inputs": [],
      "name": "pause",
      "outputs": [],
      "stateMutability": "nonpayable",
      "type": "function"
    },
    {
      "inputs": [],
      "name": "paused",
      "outputs": [
        {
          "internalType": "bool",
          "name": "",
          "type": "bool"
        }
      ],
      "stateMutability": "view",
      "type": "function"
    },
    {
      "inputs": [
        {
          "internalType": "uint256",
          "name": "_pid",
          "type": "uint256"
        },
        {
          "internalType": "address",
          "name": "_user",
          "type": "address"
        }
      ],
      "name": "pendingCRP",
      "outputs": [
        {
          "internalType": "uint256",
          "name": "",
          "type": "uint256"
        }
      ],
      "stateMutability": "view",
      "type": "function"
    },
    {
      "inputs": [
        {
          "internalType": "uint256",
          "name": "",
          "type": "uint256"
        }
      ],
      "name": "poolInfo",
      "outputs": [
        {
          "internalType": "uint256",
          "name": "allocPoint",
          "type": "uint256"
        },
        {
          "internalType": "uint256",
          "name": "lastRewardBlock",
          "type": "uint256"
        },
        {
          "internalType": "uint256",
          "name": "accCRPPerShare",
          "type": "uint256"
        },
        {
          "internalType": "uint256",
          "name": "epoch",
          "type": "uint256"
        },
        {
          "internalType": "uint256",
          "name": "amount",
          "type": "uint256"
        }
      ],
      "stateMutability": "view",
      "type": "function"
    },
    {
      "inputs": [],
      "name": "poolLength",
      "outputs": [
        {
          "internalType": "uint256",
          "name": "",
          "type": "uint256"
        }
      ],
      "stateMutability": "view",
      "type": "function"
    },
    {
      "inputs": [],
      "name": "prediction",
      "outputs": [
        {
          "internalType": "contract Prediction",
          "name": "",
          "type": "address"
        }
      ],
      "stateMutability": "view",
      "type": "function"
    },
    {
      "inputs": [],
      "name": "renounceOwnership",
      "outputs": [],
      "stateMutability": "nonpayable",
      "type": "function"
    },
    {
      "inputs": [
        {
          "internalType": "uint256",
          "name": "_allocPoint",
          "type": "uint256"
        }
      ],
      "name": "setAllocPoint",
      "outputs": [],
      "stateMutability": "nonpayable",
      "type": "function"
    },
    {
      "inputs": [
        {
          "internalType": "uint256",
          "name": "_maxCRPDeposit",
          "type": "uint256"
        }
      ],
      "name": "setMaxCRPDeposit",
      "outputs": [],
      "stateMutability": "nonpayable",
      "type": "function"
    },
    {
      "inputs": [
        {
          "internalType": "address",
          "name": "_operatorAddress",
          "type": "address"
        }
      ],
      "name": "setOperator",
      "outputs": [],
      "stateMutability": "nonpayable",
      "type": "function"
    },
    {
      "inputs": [
        {
          "internalType": "uint256",
          "name": "_allocPoint",
          "type": "uint256"
        }
      ],
      "name": "setPoolAllocPoint",
      "outputs": [],
      "stateMutability": "nonpayable",
      "type": "function"
    },
    {
      "inputs": [],
      "name": "startBlock",
      "outputs": [
        {
          "internalType": "uint256",
          "name": "",
          "type": "uint256"
        }
      ],
      "stateMutability": "view",
      "type": "function"
    },
    {
      "inputs": [],
      "name": "totalRewardDebt",
      "outputs": [
        {
          "internalType": "uint256",
          "name": "",
          "type": "uint256"
        }
      ],
      "stateMutability": "view",
      "type": "function"
    },
    {
      "inputs": [
        {
          "internalType": "address",
          "name": "newOwner",
          "type": "address"
        }
      ],
      "name": "transferOwnership",
      "outputs": [],
      "stateMutability": "nonpayable",
      "type": "function"
    },
    {
      "inputs": [],
      "name": "unpause",
      "outputs": [],
      "stateMutability": "nonpayable",
      "type": "function"
    },
    {
      "inputs": [
        {
          "internalType": "uint256",
          "name": "multiplierNumber",
          "type": "uint256"
        }
      ],
      "name": "updateMultiplier",
      "outputs": [],
      "stateMutability": "nonpayable",
      "type": "function"
    },
    {
      "inputs": [
        {
          "internalType": "uint256",
          "name": "_pid",
          "type": "uint256"
        }
      ],
      "name": "updatePool",
      "outputs": [],
      "stateMutability": "nonpayable",
      "type": "function"
    },
    {
      "inputs": [
        {
          "internalType": "address",
          "name": "newImplementation",
          "type": "address"
        }
      ],
      "name": "upgradeTo",
      "outputs": [],
      "stateMutability": "nonpayable",
      "type": "function"
    },
    {
      "inputs": [
        {
          "internalType": "address",
          "name": "newImplementation",
          "type": "address"
        },
        {
          "internalType": "bytes",
          "name": "data",
          "type": "bytes"
        }
      ],
      "name": "upgradeToAndCall",
      "outputs": [],
      "stateMutability": "payable",
      "type": "function"
    },
    {
      "inputs": [
        {
          "internalType": "uint256",
          "name": "",
          "type": "uint256"
        },
        {
          "internalType": "address",
          "name": "",
          "type": "address"
        }
      ],
      "name": "userInfo",
      "outputs": [
        {
          "internalType": "uint256",
          "name": "amount",
          "type": "uint256"
        },
        {
          "internalType": "uint256",
          "name": "rewardDebt",
          "type": "uint256"
        }
      ],
      "stateMutability": "view",
      "type": "function"
    },
    {
      "inputs": [],
      "name": "wallet",
      "outputs": [
        {
          "internalType": "contract PredictionWallet",
          "name": "",
          "type": "address"
        }
      ],
      "stateMutability": "view",
      "type": "function"
    },
    {
      "inputs": [
        {
          "internalType": "uint256",
          "name": "_pid",
          "type": "uint256"
        },
        {
          "internalType": "uint256",
          "name": "_amount",
          "type": "uint256"
        }
      ],
      "name": "withdraw",
      "outputs": [],
      "stateMutability": "nonpayable",
      "type": "function"
    },
    {
      "inputs": [
        {
          "internalType": "address",
          "name": "preder",
          "type": "address"
        },
        {
          "internalType": "uint256",
          "name": "round",
          "type": "uint256"
        }
      ],
      "name": "wonRound",
      "outputs": [
        {
          "internalType": "bool",
          "name": "",
          "type": "bool"
        }
      ],
      "stateMutability": "view",
      "type": "function"
    }
  ],
  "bytecode": "0x60a06040523060601b60805234801561001757600080fd5b5060805160601c612a6661004b60003960008181610c7101528181610cb10152818161114401526111840152612a666000f3fe60806040526004361061021a5760003560e01c80635c975abb1161012357806393f1a40b116100ab578063d3dd7eb71161006f578063d3dd7eb714610626578063e0747c961461063d578063e2bbb1581461065d578063ea6cfd4a1461067d578063f2fde38b1461069d5761021a565b806393f1a40b1461057b578063afa9dd7e146105d0578063b3944d5214610241578063b3ab15fb146105e6578063b7a3c110146106065761021a565b806383bb3877116100f257806383bb3877146104fb5780638456cb59146105125780638aa28550146105275780638da5cb5b1461053d5780638dbb1e3a1461055b5761021a565b80635c975abb1461048d5780635ffe6146146104a5578063715018a6146104c55780637ecc3bcf146104da5761021a565b80633659cfe6116101a657806348cd4cb11161017557806348cd4cb1146104035780634f1ef2861461041a57806351eb05a61461042d578063521eb2731461044d5780635312ea8e1461046d5761021a565b80633659cfe61461038e5780633f4ba83a146103ae578063441a3e70146103c357806344b315d4146103e35761021a565b80631521604e116101ed5780631521604e146102bf5780631526fe27146102ef5780631c8d04e2146103375780632372c9161461035757806330c40885146103775761021a565b80630729da0b1461021f578063081e3eda146102415780631003e2d214610266578063127effb214610286575b600080fd5b34801561022b57600080fd5b5061023f61023a366004612616565b6106bd565b005b34801561024d57600080fd5b50610101545b6040519081526020015b60405180910390f35b34801561027257600080fd5b5061023f6102813660046126d5565b610800565b34801561029257600080fd5b50610106546102a7906001600160a01b031681565b6040516001600160a01b03909116815260200161025d565b3480156102cb57600080fd5b506102df6102da366004612690565b610b5d565b604051901515815260200161025d565b3480156102fb57600080fd5b5061030f61030a3660046126d5565b610bea565b604080519586526020860194909452928401919091526060830152608082015260a00161025d565b34801561034357600080fd5b506102df610352366004612690565b610c2c565b34801561036357600080fd5b5060fc546102a7906001600160a01b031681565b34801561038357600080fd5b506102536101005481565b34801561039a57600080fd5b5061023f6103a936600461253b565b610c66565b3480156103ba57600080fd5b5061023f610d2f565b3480156103cf57600080fd5b5061023f6103de366004612734565b610d63565b3480156103ef57600080fd5b506102536103fe366004612705565b610f8f565b34801561040f57600080fd5b506102536101045481565b61023f610428366004612557565b611139565b34801561043957600080fd5b5061023f6104483660046126d5565b6111f3565b34801561045957600080fd5b5060ff546102a7906001600160a01b031681565b34801561047957600080fd5b5061023f6104883660046126d5565b61131d565b34801561049957600080fd5b5060335460ff166102df565b3480156104b157600080fd5b5061023f6104c03660046126d5565b611457565b3480156104d157600080fd5b5061023f611486565b3480156104e657600080fd5b5061023f6104f53660046126d5565b61010055565b34801561050757600080fd5b506102536101055481565b34801561051e57600080fd5b5061023f6114ba565b34801561053357600080fd5b5061025360fe5481565b34801561054957600080fd5b5060c9546001600160a01b03166102a7565b34801561056757600080fd5b50610253610576366004612734565b6114ec565b34801561058757600080fd5b506105bb610596366004612705565b6101026020908152600092835260408084209091529082529020805460019091015482565b6040805192835260208301919091520161025d565b3480156105dc57600080fd5b5061025360fd5481565b3480156105f257600080fd5b5061023f61060136600461253b565b611506565b34801561061257600080fd5b5061023f6106213660046126d5565b6115d4565b34801561063257600080fd5b506102536101035481565b34801561064957600080fd5b5061023f6106583660046126d5565b611654565b34801561066957600080fd5b5061023f610678366004612734565b611684565b34801561068957600080fd5b5060fb546102a7906001600160a01b031681565b3480156106a957600080fd5b5061023f6106b836600461253b565b611a10565b600054610100900460ff166106d85760005460ff16156106e0565b6106e0611aa8565b6107485760405162461bcd60e51b815260206004820152602e60248201527f496e697469616c697a61626c653a20636f6e747261637420697320616c72656160448201526d191e481a5b9a5d1a585b1a5e995960921b60648201526084015b60405180910390fd5b600054610100900460ff16158015610773576000805460ff1961ff0019909116610100171660011790555b61077b611ab9565b61010680546001600160a01b03808b166001600160a01b03199283161790925560fb80548a841690831617905560fd88905561010487905560ff805486841690831617905560fc805492851692909116919091179055610100849055620f424060fe5560c86101035580156107f6576000805461ff00191690555b5050505050505050565b60fc54604051638c65c81f60e01b8152600481018390526000916001600160a01b031690638c65c81f9060240160a06040518083038186803b15801561084557600080fd5b505afa158015610859573d6000803e3d6000fd5b505050506040513d601f19601f8201168201806040525081019061087d9190612755565b945050505050806108e15760405162461bcd60e51b815260206004820152602860248201527f526f756e6420776173206e6f74207375636365737366756c206f72206e6f7420604482015267636f6d706c65746560c01b606482015260840161073f565b60fc5460408051630ecce30160e31b815290516000926001600160a01b0316916376671808916004808301926020929190829003018186803b15801561092657600080fd5b505afa15801561093a573d6000803e3d6000fd5b505050506040513d601f19601f8201168201806040525081019061095e91906126ed565b9050828114610a445760fc54604051638c65c81f60e01b8152600481018390526000916001600160a01b031690638c65c81f9060240160a06040518083038186803b1580156109ac57600080fd5b505afa1580156109c0573d6000803e3d6000fd5b505050506040513d601f19601f820116820180604052508101906109e49190612755565b9450505050508015610a425760405162461bcd60e51b815260206004820152602160248201527f43757272656e7420526f756e6420697320616c726561647920636f6d706c65746044820152606560f81b606482015260840161073f565b505b6101015415610b4b5761010154600090610a6090600190612985565b9050836101018281548110610a8557634e487b7160e01b600052603260045260246000fd5b90600052602060002090600502016003015410610afc5760405162461bcd60e51b815260206004820152602f60248201527f4e65772065706f63682063616e6e6f74206265206c657373206f72206571756160448201526e0d840e8de40e0c2e6e840cae0dec6d608b1b606482015260840161073f565b610b05816111f3565b610101805460009190610b1a90600190612985565b81548110610b3857634e487b7160e01b600052603260045260246000fd5b6000918252602090912060059091020155505b610b586101035484611af0565b505050565b60fc54604051630a90b02760e11b81526001600160a01b038481166004830152602482018490526000921690631521604e906044015b60206040518083038186803b158015610bab57600080fd5b505afa158015610bbf573d6000803e3d6000fd5b505050506040513d601f19601f82011682018060405250810190610be391906126bb565b9392505050565b6101018181548110610bfb57600080fd5b6000918252602090912060059091020180546001820154600283015460038401546004909401549294509092909185565b60fc54604051630e46827160e11b81526001600160a01b038481166004830152602482018490526000921690631c8d04e290604401610b93565b306001600160a01b037f0000000000000000000000000000000000000000000000000000000000000000161415610caf5760405162461bcd60e51b815260040161073f906127ec565b7f00000000000000000000000000000000000000000000000000000000000000006001600160a01b0316610ce1611c50565b6001600160a01b031614610d075760405162461bcd60e51b815260040161073f90612838565b610d1081611c7e565b60408051600080825260208201909252610d2c91839190611ca8565b50565b60c9546001600160a01b03163314610d595760405162461bcd60e51b815260040161073f906128ae565b610d61611df3565b565b60335460ff1615610d865760405162461bcd60e51b815260040161073f90612884565b60006101018381548110610daa57634e487b7160e01b600052603260045260246000fd5b60009182526020808320868452610102825260408085203386529092529220805460059092029092019250831115610e195760405162461bcd60e51b81526020600482015260126024820152711dda5d1a191c985dce881b9bdd0819dbdbd960721b604482015260640161073f565b610e22846111f3565b6000610e638260010154610e5d68327cb2734119d3b7a9601e1b610e5787600201548760000154611e8690919063ffffffff16565b90611e92565b90611e9e565b90508015610e7557610e753382611eaa565b8315610eb4578154610e879085611e9e565b82556004830154610e989085611e9e565b600484015560fb54610eb4906001600160a01b03163386611f44565b60028301548254610ed69168327cb2734119d3b7a9601e1b91610e5791611e86565b8260010181905550826101018681548110610f0157634e487b7160e01b600052603260045260246000fd5b9060005260206000209060050201600082015481600001556001820154816001015560028201548160020155600382015481600301556004820154816004015590505084336001600160a01b03167ff279e6a1f5e320cca91135676d9cb6e44ca8a08c0b88342bcdb1144f6511b56886604051610f8091815260200190565b60405180910390a35050505050565b6000806101018481548110610fb457634e487b7160e01b600052603260045260246000fd5b60009182526020808320878452610102825260408085206001600160a01b038916865290925292206002600590920290920190810154600182015491935090431180156110045750600483015415155b156111005760006110198460010154436114ec565b9050600061103260fd5483611e8690919063ffffffff16565b6101055460fb5460ff546040516370a0823160e01b81526001600160a01b0391821660048201529394506000936110c3939291909116906370a08231906024015b60206040518083038186803b15801561108b57600080fd5b505afa15801561109f573d6000803e3d6000fd5b505050506040513d601f19601f82011682018060405250810190610e5d91906126ed565b90508082106110d0578091505b60048601546110fa906110f390610e578568327cb2734119d3b7a9601e1b611e86565b8590611fa7565b93505050505b61112f8260010154610e5d68327cb2734119d3b7a9601e1b610e57858760000154611e8690919063ffffffff16565b9695505050505050565b306001600160a01b037f00000000000000000000000000000000000000000000000000000000000000001614156111825760405162461bcd60e51b815260040161073f906127ec565b7f00000000000000000000000000000000000000000000000000000000000000006001600160a01b03166111b4611c50565b6001600160a01b0316146111da5760405162461bcd60e51b815260040161073f90612838565b6111e382611c7e565b6111ef82826001611ca8565b5050565b6000610101828154811061121757634e487b7160e01b600052603260045260246000fd5b90600052602060002090600502019050806001015443116112385750610d2c565b600481015461124d5743600190910155610d2c565b600061125d8260010154436114ec565b9050600061127660fd5483611e8690919063ffffffff16565b6101055460fb5460ff546040516370a0823160e01b81526001600160a01b0391821660048201529394506000936112bb939291909116906370a0823190602401611073565b90508082106112c8578091505b60048401546112f6906112eb90610e578568327cb2734119d3b7a9601e1b611e86565b600286015490611fa7565b6002850155610105546113099083611fa7565b610105555050436001909201919091555050565b60335460ff166113665760405162461bcd60e51b815260206004820152601460248201527314185d5cd8589b194e881b9bdd081c185d5cd95960621b604482015260640161073f565b6000610101828154811061138a57634e487b7160e01b600052603260045260246000fd5b600091825260208083208584526101028252604080852033865290925290832080548482556001820185905560026005909402909201928301549294509290916113ed908290610e5d9068327cb2734119d3b7a9601e1b90610e57908790611e86565b905061010554811161140c57610105546114079082611e9e565b610105555b60fb54611423906001600160a01b03163384611f44565b604051828152859033907fbb757047c2b5f3974fe26b7c10f732e7bce710b0952a71082702781e62ae059590602001610f80565b60c9546001600160a01b031633146114815760405162461bcd60e51b815260040161073f906128ae565b60fe55565b60c9546001600160a01b031633146114b05760405162461bcd60e51b815260040161073f906128ae565b610d616000611fb3565b60c9546001600160a01b031633146114e45760405162461bcd60e51b815260040161073f906128ae565b610d61612005565b60fe54600090610be3906115008486611e9e565b90611e86565b60c9546001600160a01b031633146115305760405162461bcd60e51b815260040161073f906128ae565b6001600160a01b03811661157f5760405162461bcd60e51b815260206004820152601660248201527543616e6e6f74206265207a65726f206164647265737360501b604482015260640161073f565b61010680546001600160a01b0319166001600160a01b0383169081179091556040519081527fc47d127c07bdd56c5ccba00463ce3bd3c1bca71b4670eea6e5d0c02e4aa156e29060200160405180910390a150565b60c9546001600160a01b031633146115fe5760405162461bcd60e51b815260040161073f906128ae565b6101015460009061161190600190612985565b905061161c816111f3565b81610101828154811061163f57634e487b7160e01b600052603260045260246000fd5b60009182526020909120600590910201555050565b60c9546001600160a01b0316331461167e5760405162461bcd60e51b815260040161073f906128ae565b61010355565b60335460ff16156116a75760405162461bcd60e51b815260040161073f90612884565b6116b0826111f3565b600061010183815481106116d457634e487b7160e01b600052603260045260246000fd5b6000918252602090912060fc546005909202016003810154604051630a90b02760e11b815233600482015260248101919091529092506001600160a01b0390911690631521604e9060440160206040518083038186803b15801561173757600080fd5b505afa15801561174b573d6000803e3d6000fd5b505050506040513d601f19601f8201168201806040525081019061176f91906126bb565b6117c55760405162461bcd60e51b815260206004820152602160248201527f446964206e6f742077696e20746869732050726564696374696f6e20726f756e6044820152601960fa1b606482015260840161073f565b600083815261010260209081526040808320338452909152902080541561182f57600061181b8260010154610e5d68327cb2734119d3b7a9601e1b610e5787600201548760000154611e8690919063ffffffff16565b9050801561182d5761182d3382611eaa565b505b82156119ac5760fb546040516370a0823160e01b81523060048201526000916001600160a01b0316906370a082319060240160206040518083038186803b15801561187957600080fd5b505afa15801561188d573d6000803e3d6000fd5b505050506040513d601f19601f820116820180604052508101906118b191906126ed565b60fb549091506118cc906001600160a01b031633308761205d565b60fb546040516370a0823160e01b815230600482015261190c916119049184916001600160a01b0316906370a0823190602401611073565b835490611fa7565b825560fb546040516370a0823160e01b8152306004820152611951916119469184916001600160a01b0316906370a0823190602401611073565b600485015490611fa7565b600484015561010054825411156119aa5760405162461bcd60e51b815260206004820152601760248201527f4d617820435250204465706f7369742052656163686564000000000000000000604482015260640161073f565b505b600282015481546119ce9168327cb2734119d3b7a9601e1b91610e5791611e86565b6001820155604051838152849033907f90890809c654f11d6e72a28fa60149770a0d11ec6c92319d6ceb2bb0a4ea1a159060200160405180910390a350505050565b60c9546001600160a01b03163314611a3a5760405162461bcd60e51b815260040161073f906128ae565b6001600160a01b038116611a9f5760405162461bcd60e51b815260206004820152602660248201527f4f776e61626c653a206e6577206f776e657220697320746865207a65726f206160448201526564647265737360d01b606482015260840161073f565b610d2c81611fb3565b6000611ab33061209b565b15905090565b600054610100900460ff16611ae05760405162461bcd60e51b815260040161073f906128e3565b611ae86120a5565b610d616120cc565b610106546001600160a01b03163314611b3a5760405162461bcd60e51b815260206004820152600c60248201526b2737ba1037b832b930ba37b960a11b604482015260640161073f565b6000610104544311611b4f5761010454611b51565b435b6040805160a08101825294855260208501918252600090850181815260608601948552608086018281526101018054600181018255935295517f109ea3cebb188b9c1b9fc5bb3920be60dfdc8699098dff92f3d80daaca74768960059093029283015591517f109ea3cebb188b9c1b9fc5bb3920be60dfdc8699098dff92f3d80daaca74768a82015590517f109ea3cebb188b9c1b9fc5bb3920be60dfdc8699098dff92f3d80daaca74768b82015591517f109ea3cebb188b9c1b9fc5bb3920be60dfdc8699098dff92f3d80daaca74768c8301555090517f109ea3cebb188b9c1b9fc5bb3920be60dfdc8699098dff92f3d80daaca74768d90910155565b7f360894a13ba1a3210667c828492db98dca3e2076cc3735a920a3ca505d382bbc546001600160a01b031690565b60c9546001600160a01b03163314610d2c5760405162461bcd60e51b815260040161073f906128ae565b6000611cb2611c50565b9050611cbd846120fc565b600083511180611cca5750815b15611cdb57611cd984846121a8565b505b7f4910fdfa16fed3260ed0e7147f7cc6da11a60208b5b9406d12a635614ffd9143805460ff16611dec57805460ff191660011781556040516001600160a01b0383166024820152611d5a90869060440160408051601f198184030181529190526020810180516001600160e01b0316631b2ce7f360e11b1790526121a8565b50805460ff19168155611d6b611c50565b6001600160a01b0316826001600160a01b031614611de35760405162461bcd60e51b815260206004820152602f60248201527f45524331393637557067726164653a207570677261646520627265616b73206660448201526e75727468657220757067726164657360881b606482015260840161073f565b611dec8561229a565b5050505050565b60335460ff16611e3c5760405162461bcd60e51b815260206004820152601460248201527314185d5cd8589b194e881b9bdd081c185d5cd95960621b604482015260640161073f565b6033805460ff191690557f5db9ee0a495bf2e6ff9c91a7834c1ba4fdd244a5e8aa4e537bd38aeae4b073aa335b6040516001600160a01b03909116815260200160405180910390a1565b6000610be38284612966565b6000610be38284612946565b6000610be38284612985565b60ff54604051632b5b444f60e21b81526001600160a01b03848116600483015260248201849052611f3c92169063ad6d113c90604401602060405180830381600087803b158015611efa57600080fd5b505af1158015611f0e573d6000803e3d6000fd5b505050506040513d601f19601f82011682018060405250810190611f3291906126ed565b6101055490611e9e565b610105555050565b6040516001600160a01b038316602482015260448101829052610b5890849063a9059cbb60e01b906064015b60408051601f198184030181529190526020810180516001600160e01b03166001600160e01b0319909316929092179091526122da565b6000610be3828461292e565b60c980546001600160a01b038381166001600160a01b0319831681179093556040519116919082907f8be0079c531659141344cd1fd0a4f28419497f9722a3daafe3b4186f6b6457e090600090a35050565b60335460ff16156120285760405162461bcd60e51b815260040161073f90612884565b6033805460ff191660011790557f62e78cea01bee320cd4e420270b5ea74000d11b0c9f74754ebdbfc544b05a258611e693390565b6040516001600160a01b03808516602483015283166044820152606481018290526120959085906323b872dd60e01b90608401611f70565b50505050565b803b15155b919050565b600054610100900460ff16610d615760405162461bcd60e51b815260040161073f906128e3565b600054610100900460ff166120f35760405162461bcd60e51b815260040161073f906128e3565b610d6133611fb3565b6121058161209b565b6121675760405162461bcd60e51b815260206004820152602d60248201527f455243313936373a206e657720696d706c656d656e746174696f6e206973206e60448201526c1bdd08184818dbdb9d1c9858dd609a1b606482015260840161073f565b7f360894a13ba1a3210667c828492db98dca3e2076cc3735a920a3ca505d382bbc80546001600160a01b0319166001600160a01b0392909216919091179055565b60606121b38361209b565b61220e5760405162461bcd60e51b815260206004820152602660248201527f416464726573733a2064656c65676174652063616c6c20746f206e6f6e2d636f6044820152651b9d1c9858dd60d21b606482015260840161073f565b600080846001600160a01b031684604051612229919061279d565b600060405180830381855af49150503d8060008114612264576040519150601f19603f3d011682016040523d82523d6000602084013e612269565b606091505b50915091506122918282604051806060016040528060278152602001612a0a602791396123ac565b95945050505050565b6122a3816120fc565b6040516001600160a01b038216907fbc7cd75a20ee27fd9adebab32041f755214dbc6bffa90cc0225b39da2e5c2d3b90600090a250565b600061232f826040518060400160405280602081526020017f5361666545524332303a206c6f772d6c6576656c2063616c6c206661696c6564815250856001600160a01b03166123e59092919063ffffffff16565b805190915015610b58578080602001905181019061234d91906126bb565b610b585760405162461bcd60e51b815260206004820152602a60248201527f5361666545524332303a204552433230206f7065726174696f6e20646964206e6044820152691bdd081cdd58d8d9595960b21b606482015260840161073f565b606083156123bb575081610be3565b8251156123cb5782518084602001fd5b8160405162461bcd60e51b815260040161073f91906127b9565b60606123f484846000856123fc565b949350505050565b60608247101561245d5760405162461bcd60e51b815260206004820152602660248201527f416464726573733a20696e73756666696369656e742062616c616e636520666f6044820152651c8818d85b1b60d21b606482015260840161073f565b6124668561209b565b6124b25760405162461bcd60e51b815260206004820152601d60248201527f416464726573733a2063616c6c20746f206e6f6e2d636f6e7472616374000000604482015260640161073f565b600080866001600160a01b031685876040516124ce919061279d565b60006040518083038185875af1925050503d806000811461250b576040519150601f19603f3d011682016040523d82523d6000602084013e612510565b606091505b50915091506125208282866123ac565b979650505050505050565b805180151581146120a057600080fd5b60006020828403121561254c578081fd5b8135610be3816129f4565b60008060408385031215612569578081fd5b8235612574816129f4565b9150602083013567ffffffffffffffff80821115612590578283fd5b818501915085601f8301126125a3578283fd5b8135818111156125b5576125b56129de565b604051601f8201601f19908116603f011681019083821181831017156125dd576125dd6129de565b816040528281528860208487010111156125f5578586fd5b82602086016020830137856020848301015280955050505050509250929050565b600080600080600080600060e0888a031215612630578283fd5b873561263b816129f4565b9650602088013561264b816129f4565b955060408801359450606088013593506080880135925060a0880135612670816129f4565b915060c0880135612680816129f4565b8091505092959891949750929550565b600080604083850312156126a2578182fd5b82356126ad816129f4565b946020939093013593505050565b6000602082840312156126cc578081fd5b610be38261252b565b6000602082840312156126e6578081fd5b5035919050565b6000602082840312156126fe578081fd5b5051919050565b60008060408385031215612717578182fd5b823591506020830135612729816129f4565b809150509250929050565b60008060408385031215612746578182fd5b50508035926020909101359150565b600080600080600060a0868803121561276c578081fd5b855194506020860151935060408601519250606086015191506127916080870161252b565b90509295509295909350565b600082516127af81846020870161299c565b9190910192915050565b60006020825282518060208401526127d881604085016020870161299c565b601f01601f19169190910160400192915050565b6020808252602c908201527f46756e6374696f6e206d7573742062652063616c6c6564207468726f7567682060408201526b19195b1959d85d1958d85b1b60a21b606082015260800190565b6020808252602c908201527f46756e6374696f6e206d7573742062652063616c6c6564207468726f7567682060408201526b6163746976652070726f787960a01b606082015260800190565b60208082526010908201526f14185d5cd8589b194e881c185d5cd95960821b604082015260600190565b6020808252818101527f4f776e61626c653a2063616c6c6572206973206e6f7420746865206f776e6572604082015260600190565b6020808252602b908201527f496e697469616c697a61626c653a20636f6e7472616374206973206e6f74206960408201526a6e697469616c697a696e6760a81b606082015260800190565b60008219821115612941576129416129c8565b500190565b60008261296157634e487b7160e01b81526012600452602481fd5b500490565b6000816000190483118215151615612980576129806129c8565b500290565b600082821015612997576129976129c8565b500390565b60005b838110156129b757818101518382015260200161299f565b838111156120955750506000910152565b634e487b7160e01b600052601160045260246000fd5b634e487b7160e01b600052604160045260246000fd5b6001600160a01b0381168114610d2c57600080fdfe416464726573733a206c6f772d6c6576656c2064656c65676174652063616c6c206661696c6564a26469706673582212205552b101a800ae6f227c293a722aaad56f7b56721e35ff02705ae736b7d6854464736f6c63430008020033",
  "linkReferences": {},
  "deployedLinkReferences": {}
}