{
  "_format": "hh-sol-artifact-1",
  "contractName": "PredictionWallet",
  "sourceName": "contracts/PredictionWallet.sol",
  "abi": [
    {
      "inputs": [
        {
          "internalType": "contract IBEP20",
          "name": "_CRP",
          "type": "address"
        }
      ],
      "stateMutability": "nonpayable",
      "type": "constructor"
    },
    {
      "anonymous": false,
      "inputs": [
        {
          "indexed": true,
          "internalType": "bytes32",
          "name": "role",
          "type": "bytes32"
        },
        {
          "indexed": true,
          "internalType": "bytes32",
          "name": "previousAdminRole",
          "type": "bytes32"
        },
        {
          "indexed": true,
          "internalType": "bytes32",
          "name": "newAdminRole",
          "type": "bytes32"
        }
      ],
      "name": "RoleAdminChanged",
      "type": "event"
    },
    {
      "anonymous": false,
      "inputs": [
        {
          "indexed": true,
          "internalType": "bytes32",
          "name": "role",
          "type": "bytes32"
        },
        {
          "indexed": true,
          "internalType": "address",
          "name": "account",
          "type": "address"
        },
        {
          "indexed": true,
          "internalType": "address",
          "name": "sender",
          "type": "address"
        }
      ],
      "name": "RoleGranted",
      "type": "event"
    },
    {
      "anonymous": false,
      "inputs": [
        {
          "indexed": true,
          "internalType": "bytes32",
          "name": "role",
          "type": "bytes32"
        },
        {
          "indexed": true,
          "internalType": "address",
          "name": "account",
          "type": "address"
        },
        {
          "indexed": true,
          "internalType": "address",
          "name": "sender",
          "type": "address"
        }
      ],
      "name": "RoleRevoked",
      "type": "event"
    },
    {
      "inputs": [],
      "name": "CRP",
      "outputs": [
        {
          "internalType": "contract IBEP20",
          "name": "",
          "type": "address"
        }
      ],
      "stateMutability": "view",
      "type": "function"
    },
    {
      "inputs": [],
      "name": "DEFAULT_ADMIN_ROLE",
      "outputs": [
        {
          "internalType": "bytes32",
          "name": "",
          "type": "bytes32"
        }
      ],
      "stateMutability": "view",
      "type": "function"
    },
    {
      "inputs": [
        {
          "internalType": "bytes32",
          "name": "role",
          "type": "bytes32"
        }
      ],
      "name": "getRoleAdmin",
      "outputs": [
        {
          "internalType": "bytes32",
          "name": "",
          "type": "bytes32"
        }
      ],
      "stateMutability": "view",
      "type": "function"
    },
    {
      "inputs": [
        {
          "internalType": "bytes32",
          "name": "role",
          "type": "bytes32"
        },
        {
          "internalType": "address",
          "name": "account",
          "type": "address"
        }
      ],
      "name": "grantRole",
      "outputs": [],
      "stateMutability": "nonpayable",
      "type": "function"
    },
    {
      "inputs": [
        {
          "internalType": "bytes32",
          "name": "role",
          "type": "bytes32"
        },
        {
          "internalType": "address",
          "name": "account",
          "type": "address"
        }
      ],
      "name": "hasRole",
      "outputs": [
        {
          "internalType": "bool",
          "name": "",
          "type": "bool"
        }
      ],
      "stateMutability": "view",
      "type": "function"
    },
    {
      "inputs": [
        {
          "internalType": "bytes32",
          "name": "role",
          "type": "bytes32"
        },
        {
          "internalType": "address",
          "name": "account",
          "type": "address"
        }
      ],
      "name": "renounceRole",
      "outputs": [],
      "stateMutability": "nonpayable",
      "type": "function"
    },
    {
      "inputs": [
        {
          "internalType": "bytes32",
          "name": "role",
          "type": "bytes32"
        },
        {
          "internalType": "address",
          "name": "account",
          "type": "address"
        }
      ],
      "name": "revokeRole",
      "outputs": [],
      "stateMutability": "nonpayable",
      "type": "function"
    },
    {
      "inputs": [
        {
          "internalType": "address",
          "name": "_to",
          "type": "address"
        },
        {
          "internalType": "uint256",
          "name": "_amount",
          "type": "uint256"
        }
      ],
      "name": "safeCROTransfer",
      "outputs": [
        {
          "internalType": "uint256",
          "name": "",
          "type": "uint256"
        }
      ],
      "stateMutability": "nonpayable",
      "type": "function"
    },
    {
      "inputs": [
        {
          "internalType": "address",
          "name": "_to",
          "type": "address"
        },
        {
          "internalType": "uint256",
          "name": "_amount",
          "type": "uint256"
        }
      ],
      "name": "safeCRPTransfer",
      "outputs": [
        {
          "internalType": "uint256",
          "name": "",
          "type": "uint256"
        }
      ],
      "stateMutability": "nonpayable",
      "type": "function"
    },
    {
      "inputs": [
        {
          "internalType": "contract IBEP20",
          "name": "_token",
          "type": "address"
        },
        {
          "internalType": "address",
          "name": "_to",
          "type": "address"
        },
        {
          "internalType": "uint256",
          "name": "_amount",
          "type": "uint256"
        }
      ],
      "name": "safeTokenTransfer",
      "outputs": [
        {
          "internalType": "uint256",
          "name": "",
          "type": "uint256"
        }
      ],
      "stateMutability": "nonpayable",
      "type": "function"
    },
    {
      "inputs": [
        {
          "internalType": "bytes4",
          "name": "interfaceId",
          "type": "bytes4"
        }
      ],
      "name": "supportsInterface",
      "outputs": [
        {
          "internalType": "bool",
          "name": "",
          "type": "bool"
        }
      ],
      "stateMutability": "view",
      "type": "function"
    },
    {
      "stateMutability": "payable",
      "type": "receive"
    }
  ],
  "bytecode": "0x60806040523480156200001157600080fd5b506040516200128b3803806200128b833981016040819052620000349162000246565b60018055600280546001600160a01b0319166001600160a01b0383161790556200009f7f6c6f73657250726564696374696f6e506f6f6c000000000000000000000000007f6c6f73657250726564696374696f6e506f6f6c41646d696e00000000000000006200014b565b620000eb7f77696e6e657250726564696374696f6e506f6f6c0000000000000000000000007f77696e6e657250726564696374696f6e506f6f6c41646d696e000000000000006200014b565b620001187f6c6f73657250726564696374696f6e506f6f6c41646d696e0000000000000000335b62000196565b620001447f77696e6e657250726564696374696f6e506f6f6c41646d696e000000000000003362000112565b5062000276565b600082815260208190526040808220600101805490849055905190918391839186917fbd79b86ffe0ab8e8776151514217cd7cacd52c909f66475c3af44e129f0b00ff9190a4505050565b620001a28282620001a6565b5050565b6000828152602081815260408083206001600160a01b038516845290915290205460ff16620001a2576000828152602081815260408083206001600160a01b03851684529091529020805460ff19166001179055620002023390565b6001600160a01b0316816001600160a01b0316837f2f8788117e7eff1d82e926ec794901d17c78024a50270940304540a733656f0d60405160405180910390a45050565b60006020828403121562000258578081fd5b81516001600160a01b03811681146200026f578182fd5b9392505050565b61100580620002866000396000f3fe6080604052600436106100a05760003560e01c80633ec63223116100645780633ec632231461018157806391d14854146101a1578063a217fddf146101c1578063ad6d113c146101d6578063d547741f146101f6578063ea6cfd4a14610216576100a7565b806301ffc9a7146100ac5780631a104292146100e1578063248a9ca31461010f5780632f2ff15d1461013f57806336568abe14610161576100a7565b366100a757005b600080fd5b3480156100b857600080fd5b506100cc6100c7366004610da8565b61024e565b60405190151581526020015b60405180910390f35b3480156100ed57600080fd5b506101016100fc366004610d16565b610285565b6040519081526020016100d8565b34801561011b57600080fd5b5061010161012a366004610d61565b60009081526020819052604090206001015490565b34801561014b57600080fd5b5061015f61015a366004610d79565b61042c565b005b34801561016d57600080fd5b5061015f61017c366004610d79565b610457565b34801561018d57600080fd5b5061010161019c366004610dd0565b6104d5565b3480156101ad57600080fd5b506100cc6101bc366004610d79565b6105e5565b3480156101cd57600080fd5b50610101600081565b3480156101e257600080fd5b506101016101f1366004610d16565b61060e565b34801561020257600080fd5b5061015f610211366004610d79565b61071e565b34801561022257600080fd5b50600254610236906001600160a01b031681565b6040516001600160a01b0390911681526020016100d8565b60006001600160e01b03198216637965db0b60e01b148061027f57506301ffc9a760e01b6001600160e01b03198316145b92915050565b6000721b1bdcd95c941c99591a58dd1a5bdb941bdbdb606a1b6102a981335b610744565b600260015414156102d55760405162461bcd60e51b81526004016102cc90610eec565b60405180910390fd5b60026001554780841115610383576000856001600160a01b03168260405160006040518083038185875af1925050503d8060008114610330576040519150601f19603f3d011682016040523d82523d6000602084013e610335565b606091505b505090508061037b5760405162461bcd60e51b8152602060048201526012602482015271756e61626c6520746f2073656e642043524f60701b60448201526064016102cc565b509150610421565b6000856001600160a01b03168560405160006040518083038185875af1925050503d80600081146103d0576040519150601f19603f3d011682016040523d82523d6000602084013e6103d5565b606091505b505090508061041b5760405162461bcd60e51b8152602060048201526012602482015271756e61626c6520746f2073656e642043524f60701b60448201526064016102cc565b84935050505b506001805592915050565b60008281526020819052604090206001015461044881336102a4565b61045283836107a8565b505050565b6001600160a01b03811633146104c75760405162461bcd60e51b815260206004820152602f60248201527f416363657373436f6e74726f6c3a2063616e206f6e6c792072656e6f756e636560448201526e103937b632b9903337b91039b2b63360891b60648201526084016102cc565b6104d1828261082c565b5050565b6000731dda5b9b995c941c99591a58dd1a5bdb941bdbdb60621b6104f981336102a4565b6002600154141561051c5760405162461bcd60e51b81526004016102cc90610eec565b60026001556040516370a0823160e01b81523060048201526000906001600160a01b038716906370a082319060240160206040518083038186803b15801561056357600080fd5b505afa158015610577573d6000803e3d6000fd5b505050506040513d601f19601f8201168201806040525081019061059b9190610e10565b9050808411156105c0576105b96001600160a01b0387168683610891565b91506105d9565b6105d46001600160a01b0387168686610891565b839250505b50600180559392505050565b6000918252602082815260408084206001600160a01b0393909316845291905290205460ff1690565b6000731dda5b9b995c941c99591a58dd1a5bdb941bdbdb60621b61063281336102a4565b600260015414156106555760405162461bcd60e51b81526004016102cc90610eec565b60026001819055546040516370a0823160e01b81523060048201526000916001600160a01b0316906370a082319060240160206040518083038186803b15801561069e57600080fd5b505afa1580156106b2573d6000803e3d6000fd5b505050506040513d601f19601f820116820180604052508101906106d69190610e10565b9050808411156106fe576002546106f7906001600160a01b03168683610891565b9150610421565b600254610715906001600160a01b03168686610891565b83925050610421565b60008281526020819052604090206001015461073a81336102a4565b610452838361082c565b61074e82826105e5565b6104d157610766816001600160a01b031660146108e3565b6107718360206108e3565b604051602001610782929190610e44565b60408051601f198184030181529082905262461bcd60e51b82526102cc91600401610eb9565b6107b282826105e5565b6104d1576000828152602081815260408083206001600160a01b03851684529091529020805460ff191660011790556107e83390565b6001600160a01b0316816001600160a01b0316837f2f8788117e7eff1d82e926ec794901d17c78024a50270940304540a733656f0d60405160405180910390a45050565b61083682826105e5565b156104d1576000828152602081815260408083206001600160a01b0385168085529252808320805460ff1916905551339285917ff6391f5c32d9c69d2a47ea670b442974b53935d1edc7fd64eb21e047a839171b9190a45050565b604080516001600160a01b038416602482015260448082018490528251808303909101815260649091019091526020810180516001600160e01b031663a9059cbb60e01b179052610452908490610acc565b606060006108f2836002610f3b565b6108fd906002610f23565b67ffffffffffffffff81111561092357634e487b7160e01b600052604160045260246000fd5b6040519080825280601f01601f19166020018201604052801561094d576020820181803683370190505b509050600360fc1b8160008151811061097657634e487b7160e01b600052603260045260246000fd5b60200101906001600160f81b031916908160001a905350600f60fb1b816001815181106109b357634e487b7160e01b600052603260045260246000fd5b60200101906001600160f81b031916908160001a90535060006109d7846002610f3b565b6109e2906001610f23565b90505b6001811115610a76576f181899199a1a9b1b9c1cb0b131b232b360811b85600f1660108110610a2457634e487b7160e01b600052603260045260246000fd5b1a60f81b828281518110610a4857634e487b7160e01b600052603260045260246000fd5b60200101906001600160f81b031916908160001a90535060049490941c93610a6f81610f8a565b90506109e5565b508315610ac55760405162461bcd60e51b815260206004820181905260248201527f537472696e67733a20686578206c656e67746820696e73756666696369656e7460448201526064016102cc565b9392505050565b6000610b21826040518060400160405280602081526020017f5361666545524332303a206c6f772d6c6576656c2063616c6c206661696c6564815250856001600160a01b0316610b9e9092919063ffffffff16565b8051909150156104525780806020019051810190610b3f9190610d41565b6104525760405162461bcd60e51b815260206004820152602a60248201527f5361666545524332303a204552433230206f7065726174696f6e20646964206e6044820152691bdd081cdd58d8d9595960b21b60648201526084016102cc565b6060610bad8484600085610bb5565b949350505050565b606082471015610c165760405162461bcd60e51b815260206004820152602660248201527f416464726573733a20696e73756666696369656e742062616c616e636520666f6044820152651c8818d85b1b60d21b60648201526084016102cc565b843b610c645760405162461bcd60e51b815260206004820152601d60248201527f416464726573733a2063616c6c20746f206e6f6e2d636f6e747261637400000060448201526064016102cc565b600080866001600160a01b03168587604051610c809190610e28565b60006040518083038185875af1925050503d8060008114610cbd576040519150601f19603f3d011682016040523d82523d6000602084013e610cc2565b606091505b5091509150610cd2828286610cdd565b979650505050505050565b60608315610cec575081610ac5565b825115610cfc5782518084602001fd5b8160405162461bcd60e51b81526004016102cc9190610eb9565b60008060408385031215610d28578182fd5b8235610d3381610fb7565b946020939093013593505050565b600060208284031215610d52578081fd5b81518015158114610ac5578182fd5b600060208284031215610d72578081fd5b5035919050565b60008060408385031215610d8b578182fd5b823591506020830135610d9d81610fb7565b809150509250929050565b600060208284031215610db9578081fd5b81356001600160e01b031981168114610ac5578182fd5b600080600060608486031215610de4578081fd5b8335610def81610fb7565b92506020840135610dff81610fb7565b929592945050506040919091013590565b600060208284031215610e21578081fd5b5051919050565b60008251610e3a818460208701610f5a565b9190910192915050565b60007f416363657373436f6e74726f6c3a206163636f756e742000000000000000000082528351610e7c816017850160208801610f5a565b7001034b99036b4b9b9b4b733903937b6329607d1b6017918401918201528351610ead816028840160208801610f5a565b01602801949350505050565b6000602082528251806020840152610ed8816040850160208701610f5a565b601f01601f19169190910160400192915050565b6020808252601f908201527f5265656e7472616e637947756172643a207265656e7472616e742063616c6c00604082015260600190565b60008219821115610f3657610f36610fa1565b500190565b6000816000190483118215151615610f5557610f55610fa1565b500290565b60005b83811015610f75578181015183820152602001610f5d565b83811115610f84576000848401525b50505050565b600081610f9957610f99610fa1565b506000190190565b634e487b7160e01b600052601160045260246000fd5b6001600160a01b0381168114610fcc57600080fd5b5056fea2646970667358221220890f0ea211e0fb1d67ea029d6738cc2457686e5b5603ebdf1c79d44694af48c964736f6c63430008020033",
  "linkReferences": {},
  "deployedLinkReferences": {}
}